:020000040800F2
:100000002026002031030008BD740008BD5C0008F4
:10001000B974000851090008F182000800000000CE
:100020000000000000000000000000004978000807
:1000300055090008000000002D7500084D780008E3
:100040004D0300084D0300084D03000800000000A8
:100050004D0300084D0300084D0300080000000098
:100060004D0300084D030008000000004D03000888
:100070004D0300084D0300084D0300084D03000820
:100080004D0300084D0300084D0300084D03000810
:100090004D0300084D0300084D0300084D03000800
:1000A0004D0300084D0300084D0300084D030008F0
:1000B0004D0300084D0300084D0300084D030008E0
:1000C0004D0300084D0300084D0300084D030008D0
:1000D000000000004D0300084D03000861090008FE
:1000E0004D0300084D0300084D0300084D030008B0
:1000F0004D030008357A0008457A0008000000002A
:10010000000000004D0300084D030008D15C00080A
:10011000C15C00084D0300084D0300084D030008B2
:100120004D0300084D0300084D0300084D0300086F
:100130004D03000800000000000000004D0300080F
:100140004D03000800000000000000000000000057
:1001500000000000000000004D0300080000000047
:1001600000000000000000004D0300084D030008DF
:10017000000000000000000000000000000000007F
:10018000000000000000000000000000000000006F
:10019000000000000000000000000000000000005F
:1001A00000000000000000004D0300084D0300089F
:1001B0004D0300084D0300084D0300084D030008DF
:1001C0004D0300084D03000800000000000000007F
:1001D0000000000000000000000000004D030008C7
:1001E0004D030008000000000000000000000000B7
:1001F00000000000000000000000000000000000FF
:10020000000000004D0300084D030008000000003E
:10021000000000004D030008000000000000000086
:100220000000000000000000000000004D03000876
:100230004D03000800000000000000000000000066
:100240000000000000000000000000004D03000856
:100250004D0300084D03000800F002F800F058F8C4
:1002600014A696E8000CB244B344DA4501D100F07C
:100270004FF8BAE80F000FA696E83000A5EB04058A
:1002800004EB0607AAEB0704A7F101074FEA1515CF
:100290004FEA3414A4F10104AC4201D300F038F861
:1002A00013F0010F18BFFB1A43F0010300F001F82F
:1002B000DBE71847F0DB000010DC0000103A24BF39
:1002C00078C878C1FAD8520724BF30C830C144BFBB
:1002D00004680C6070470000704700000023002491
:1002E00000250026103A28BF78C1FBD8520728BF46
:1002F00030C148BF0B6070471FB50DF06DFD9DE824
:10030000030000F011FA00F0DDF91FBD10B510BDBB
:1003100000F09CFA1146FFF7EFFF0CF0CBFF00F066
:10032000BAFA03B4FFF7F2FF03BC00F0EBFA0000E7
:100330000A4880470A480047FEE7FEE7FEE7FEE777
:10034000FEE7FEE7FEE7FEE7FEE7FEE7FEE700006A
:1003500004480549054A064B704700001D7900080E
:10036000590200082016002020260020201E002010
:10037000201E002070B5064600F0BAF9056806F1A7
:100380000B0020F00704B4429CBF002070BD2B4638
:100390006A68BAB11068A04210D304F1080188421B
:1003A0003CBF5068586007D351681019416011680C
:1003B000091B016058601460101D70BD134652681F
:1003C000002AE7D12146284600F09AF90028DED11C
:1003D00070BD53EA020C00F069802DE9F04B4FF03C
:1003E0000006002B1FBFB3FA83F503FA05F424FAC5
:1003F00005F65E4012BF1643B2FA82F502FA05F422
:10040000C5F120051EBF22FA05FC44EA0C04203584
:1004100056EA044C4FEA144418BF641C4FF000081D
:100420004FF00009904271EB030C39D3002919BF3A
:10043000B1FA81F701FA07F6B0FA80F700FA07F689
:10044000C7F120071EBF20FA07FC46EA0C0620373A
:10045000B6FBF4FCA7EB0507103F07F01F0BCBF131
:1004600020062CFA06F60CFA0BFB44BFB346002616
:10047000202FA4BF5E464FF0000B5BEA060C08BFBE
:100480004FF0010B19EB0B0948EB0608ABFB027CA4
:1004900006FB02CC0BFB03CCC01B71EB0C01C1E7CC
:1004A0000B46024641464846BDE8F08B13B508436B
:1004B00018BF4FF0FF300146AFF30080BDE81C408D
:1004C0007047032A40F2308010F0030C00F01580D2
:1004D00011F8013BBCF1020F624498BF11F801CB47
:1004E00000F8013B38BF11F8013BA2F1040298BFAC
:1004F00000F801CB38BF00F8013B11F0030300F016
:100500002580083AC0F0088051F8043B083A51F8B9
:1005100004CBA0E80810F5E7121D5CBF51F8043BBE
:1005200040F8043BAFF30080D20724BF11F8013B31
:1005300011F801CB48BF11F8012B24BF00F8013B93
:1005400000F801CB48BF00F8012B704710B5203AE6
:10055000C0F00B80B1E81850A0E81850B1E818506E
:10056000A0E81850203ABFF4F5AF5FEA027C24BF40
:10057000B1E81850A0E8185044BF18C918C0BDE829
:1005800010405FEA827C24BF51F8043B40F8043BF2
:1005900008BF7047D20728BF31F8023B48BF11F8A7
:1005A000012B28BF20F8023B48BF00F8012B704701
:1005B000431A28BF9A427FF6C9AF1044114410F085
:1005C000030F1EBF11F8013D521E00F8013D10F04F
:1005D000030F7FF4F6AF103AC0F00A8010B531E98E
:1005E000185020E91850103ABFF4F9AFBDE8104098
:1005F000530724BF31E9081020E9081044BF51F81F
:10060000043D40F8043D12F0030F08BF7047D207C5
:1006100028BF31F8023D48BF11F8012C28BF20F84F
:10062000023D48BF00F8012C70474FF0000204293A
:10063000C0F0128010F0030C00F01B80CCF1040C11
:10064000BCF1020F18BF00F8012BA8BF20F8022B45
:10065000A1EB0C0100F00DB85FEAC17C24BF00F8EB
:10066000012B00F8012B48BF00F8012B70474FF019
:10067000000200B5134694469646203922BFA0E8F2
:100680000C50A0E80C50B1F12001BFF4F7AF0907FE
:1006900028BFA0E80C5048BF0CC05DF804EB8900EF
:1006A00028BF40F8042B08BF704748BF20F8022B32
:1006B00011F0804F18BF00F8012B7047704770474A
:1006C0007047000008487CB578440090074878449B
:1006D000009C0546019004E02046016808448047DC
:1006E000241DAC42F8D17CBDF8D70000F6D700003D
:1006F00000487047A8000020704770477047704757
:1007000038B504460A4600206946AFF30080002849
:1007100008BF38BD02460099204600F075F8012058
:1007200038BD012000F08AB8F8B5AFF30080054667
:1007300000200C460C2000BF0646A819A0420DD987
:10074000324669460020AFF30080070008BF00F082
:1007500075F80098A04218BF0546C419FFF7C8FFF6
:1007600005600746F01D20F007004619284600F0F6
:100770000AF8B44208BFF8BDA21B31463868BDE88C
:10078000F84000F041B800210160416070470C2042
:10079000704770B50446051FFFF7AAFF0068002CDC
:1007A00014BF446870BD002C18BFAC423CBF20464B
:1007B0006468F8D301680A18AA4218BF456003D1DB
:1007C0002A6805461144016028684119A1421CBFEE
:1007D0006C6070BD6168696021680844286070BD04
:1007E00010B500F00DF8006810BD10B5044600F01B
:1007F00007F8046010BD000000487047A00000200A
:1008000000487047A0000020034640688C4600283E
:1008100018BF88423CBF03464068F8D318681844A4
:10082000884207D00CF1030020F00700001D411A98
:10083000521A0146081D0A60FFF7ABBF10B500F061
:1008400039F8BDE8104000F02FB870477546FFF743
:10085000D3FFAE4605006946534620F007008546A3
:1008600018B020B5FFF774FDBDE820404FF000063A
:100870004FF000074FF000084FF0000BAC46ACE81B
:10088000C009ACE8C009ACE8C009ACE8C00921F077
:1008900007018D46704710B50446AFF3008020462F
:1008A000BDE81040FFF73DBD002801D000F02AB898
:1008B0007047000010B5012805D0002103A000F00A
:1008C00027F8012010BD09A1F8E70000534947525D
:1008D000544D454D3A204F7574206F662068656110
:1008E00070206D656D6F7279000000003A204865D8
:1008F0006170206D656D6F727920636F72727570B3
:100900007465640001491820ABBEFEE726000200B2
:1009100070B505460C460A2000E06D1C00F011F889
:1009200035B128780028F8D102E0641C00F009F8FD
:1009300014B120780028F8D1BDE870400A20AFF348
:10094000008008B569468DF800000320ABBE08BDE5
:10095000FFE7FEE77047000072B6FFE7FEE7000022
:1009600080B540F69070C2F2000000F06BFB80BDD5
:1009700083B002904AF60040C4F200000090009854
:100980000299086402980068D0F8800020F4F810FA
:10099000029A1168526B40EA0240C1F88000009848
:1009A00070300299486402980068D0F8800020F006
:1009B0007060029A1168926B40EA0260C1F8800090
:1009C0000098B03002998864009800F5C4700299CC
:1009D000C864009800F5187002990865009800F541
:1009E0001E700299486500980190FFE701980099F0
:1009F00001F55471884208D2FFE701990020086090
:100A0000FFE7019804300190F0E703B07047000061
:100A100081B00090009800680069C0F3074001B001
:100A20007047000082B00090009820B9FFE70120D5
:100A30008DF807001CE0009890F85400022807D0B9
:100A4000FFE700992020886501208DF807000FE05E
:100A50000099042081F8540000980168486942F226
:100A6000040210434861FFE700208DF80700FFE70C
:100A70009DF8070002B0704781B00090009890F890
:100A8000540001B07047000080B584B0039001F0BD
:100A90000BF80290039801900198013048B1FFE7EC
:100AA00040F29400C2F200000178019808440190DD
:100AB000FFE7FFE700F0F8FF0299401A019988422A
:100AC00001D2FFE7F6E704B080BD000086B00490D5
:100AD00003910292049890F85C008DF80700BDF82D
:100AE0000C0010F4C07F01D0FFE7FFE79DF807007E
:100AF000012806D0FFE79DF80700022840F0DE80BD
:100B0000FFE704980068806D00909DF80C00400796
:100B100030B1FFE79DF80000C007002847D0FFE78D
:100B20009DF80C0010F0380F06D0FFE79DF800008C
:100B3000800700283BD5FFE7BDF80C0010F4E07FEC
:100B400006D0FFE79DF80000400700282FD5FFE7FB
:100B50009DF80D0010F01E0F06D0FFE79DF8000075
:100B60000007002823D5FFE79DF80D0010F0E00FE7
:100B700006D0FFE79DF80000C006002817D5FFE764
:100B80009DF80E00800730B1FFE79DF80000800659
:100B900000280CD5FFE79DF80E0010F0FC0F0DD0DB
:100BA000FFE79DF800004006002807D4FFE70498FF
:100BB0000168C86D40F00100C865FFE79DF80C00B2
:100BC000400730B1FFE79DF80000C007002847D17B
:100BD000FFE79DF80C0010F0380F06D0FFE79DF8F6
:100BE0000000800700283BD4FFE7BDF80C0010F49C
:100BF000E07F06D0FFE79DF80000400700282FD4D3
:100C0000FFE79DF80D0010F01E0F06D0FFE79DF8DE
:100C100000000007002823D4FFE79DF80D0010F026
:100C2000E00F06D0FFE79DF80000C006002817D4AB
:100C3000FFE79DF80E00800730B1FFE79DF8000048
:100C4000800600280CD4FFE79DF80E0010F0FC0F82
:100C50000DD0FFE79DF800004006002807D5FFE70C
:100C600004980168C86D40F00200C865FFE79DF870
:100C70000C000006002809D5FFE7029A04980168D5
:100C8000D1F8DC001043C1F8DC00FFE79DF80D004F
:100C9000C00748B1FFE7029A04980168D1F8E00064
:100CA0001043C1F8E000FFE7039A04980168486D1B
:100CB0001043486500208DF8170008E00499086E7D
:100CC00040F00200086601208DF81700FFE79DF84C
:100CD000170006B07047000087B005900491059892
:100CE00090F85C008DF803009DF80300012805D002
:100CF000FFE79DF8030002283CD1FFE70498006855
:100D0000B8B9FFE704998868CB680A694969800720
:100D100040EAC36040EA0240084303900598006C33
:100D20000499496800EB81000190039801990860DB
:100D30001CE00498C168006940EA4170039004987F
:100D40008168406940EA817002900598406C04997E
:100D5000496800EBC100019003980199086001986F
:100D600004300190029801990860FFE700208DF897
:100D70001B0008E00599086E40F00200086601209B
:100D80008DF81B00FFE79DF81B0007B070470000BF
:100D900085B0DDF814C0039002910192009303988E
:100DA00090F85C00012819D1FFE703980068D0F89B
:100DB000800020F03F0002990901019A41EA820176
:100DC000009A41EA4201059A1143084303990968D0
:100DD000C1F8800000208DF8130008E00399086E28
:100DE00040F00400086601208DF81300FFE79DF82D
:100DF000130005B07047000081B0009001B070474B
:100E000082B00190009102B0704700008AB0089053
:100E100007910692059300200190089890F85C00D5
:100E20008DF803009DF80300022840F0FA80FFE7E8
:100E3000079840283ED1FFE708980068D0F8900056
:100E4000000748B9FFE70899086E40F4807008660B
:100E500001208DF82700EDE008980068D0F8900098
:100E600000F080710120B0EB116F0FD1FFE70898FF
:100E70000068D0F8800000F400710120B0EB512F21
:100E800003D1FFE701200190FFE7FFE70898006822
:100E9000D0F8900000F44071019800EB112001900F
:100EA0000898806C019901EBC10100EBC10004902E
:100EB000FFE73DE008980068D0F89800000748B9BF
:100EC000FFE70899086E40F48070086601208DF8ED
:100ED0002700AFE008980068D0F8980000F0807113
:100EE0000120B0EB116F0FD1FFE708980068D0F830
:100EF000800000F480710120B0EB112F03D1FFE7D7
:100F000001200190FFE7FFE708980068D0F89800FB
:100F100000F44071019800EB112001900898C06C1A
:100F2000019901EBC10100EBC1000490FFE7FFE76D
:100F30000498006800F08040069948600698406870
:100F400038B9FFE704980068C0F38A400699086042
:100F500006E00498006820F0604006990860FFE70A
:100F60000498006800F000500699886004980068B2
:100F700000F0004006990861049804300490049839
:100F800000880699C86104980068C0F30340069978
:100F9000C8600498006800F48010069948610498BD
:100FA000006800F400100699886104980068C0F396
:100FB00006600699086204980068C00F06994862A6
:100FC0000498043004900498039000200290FFE7F6
:100FD00002980699CA684DF60261C0F60001895C64
:100FE00088420AD2FFE70398029A805C05998854E8
:100FF000FFE7029801300290EAE70798402806D1FF
:10100000FFE7019808990968C1F8940005E0019884
:1010100008990968C1F89C00FFE700208DF82700B7
:1010200008E00899086E40F00800086601208DF875
:101030002700FFE79DF827000AB0704781B00090B5
:1010400001B0704780B58AB0099009980068006DBA
:1010500000F4E050089009980068416D0898084035
:10106000089009980068006D00F007000790099843
:101070000068416D07980840079009980068006D66
:1010800000F03800069009980068416D0698084005
:10109000069009980068006D00F4710005900998A9
:1010A0000068416D05980840059009980068006D3A
:1010B00000F46020049009980068416D049808408D
:1010C000049009980068406D019009980068006DCF
:1010D00000909DF8000000F040010020B0EB911F4F
:1010E00012D0FFE79DF8040000F040010020B0EBB3
:1010F000911F08D0FFE7099801684020086509980A
:10110000FFF79CFFFFE7FFE79DF80100C007E0B194
:10111000FFE79DF80500C007B0B1FFE70998006838
:10112000D0F8D800029009980068D0F8E010029832
:1011300008400290099801684FF48070086509988A
:10114000029900F01DFBFFE7FFE7089848B1FFE7B1
:1011500008980999096808650998089900F01CFB26
:10116000FFE7079848B1FFE70798099909680865FC
:101170000998079900F086FAFFE7069848B1FFE75B
:1011800006980999096808650998069900F0A2FA75
:10119000FFE79DF8010000F002010020B0EB510FC5
:1011A00013D0FFE79DF8050000F002010020B0EB2E
:1011B000510F09D0FFE7099801684FF400700865E6
:1011C000099800F0EFFAFFE7FFE79DF80010002014
:1011D000B0EBD11F1DD0FFE79DF804100020B0EB4D
:1011E000D11F15D0FFE709980068D0F8D40003900C
:1011F00009980068D0F8DC1003980840039009981B
:101200000168802008650998039900F0BFFAFFE79C
:10121000FFE79DF8010000F020010020B0EB511F16
:1012200013D0FFE79DF8050000F020010020B0EB8F
:10123000511F09D0FFE7099801684FF40050086575
:10124000099800F099FAFFE7FFE79DF801100020E8
:10125000B0EBD11F11D0FFE79DF805100020B0EBD7
:10126000D11F09D0FFE7099801684FF400400865D5
:10127000099800F07DFAFFE7FFE79DF8010000F014
:1012800040010020B0EB911F15D0FFE79DF805004D
:1012900000F040010020B0EB911F0BD0FFE7099850
:1012A00001684FF4804008650999086E40F080009D
:1012B0000866FFE7FFE7049848B1FFE7049809993B
:1012C0000968086509980499FFF79AFDFFE70598F2
:1012D00050B1FFE70598099909680865059A0999C9
:1012E000086E10430866FFE70998006E20B1FFE71B
:1012F0000998FFF781FDFFE70AB080BD80B584B093
:101300000290029820B9FFE701208DF80F0057E105
:10131000029800684AF20041C4F20001884201D1FB
:10132000FFE7FFE702988068B0F5407F01D1FFE753
:10133000FFE7029890F85C0040B9FFE702990020AF
:1013400081F85D00029800F03FF9FFE7029801681C
:10135000886920F01000886100F0A6FB0190FFE78B
:101360000298006880690007002815D5FFE700F0A3
:101370009BFB0199401A0B280DD3FFE70299086ED9
:1013800040F0010008660299032081F85C0001200A
:101390008DF80F0014E1E3E702980168886940F0D6
:1013A0000100886100F080FB0190FFE7029800686F
:1013B0008069C007A8B9FFE700F076FB0199401AE1
:1013C0000B280DD3FFE70299086E40F00100086674
:1013D0000299032081F85C0001208DF80F00EFE0F6
:1013E000E4E702980168886940F002008861029889
:1013F00000684AF20041C4F20001884208D1FFE7C8
:10140000029840684AF20051C4F200010860FFE708
:101410000298007C012807D1FFE7029801688869DB
:1014200020F04000886106E002980168886940F079
:1014300040008861FFE70298407C012807D1FFE760
:1014400002980168886940F48040886106E002984B
:101450000168886920F480408861FFE70298807CF9
:10146000012807D1FFE702980168886920F48050BD
:10147000886106E002980168886940F480508861BC
:10148000FFE702980068806920F44070029A1168B2
:1014900092681043886102980168886920F0A4006E
:1014A000886102980168086920F0100008610298BC
:1014B000C068012807D1FFE702980168886940F0F9
:1014C000040088612BE00298C06830B3FFE70298FF
:1014D000C068022819D0FFE702980168886940F0C7
:1014E0008000886102980168086940F01000086176
:1014F0000298C068032807D1FFE70298016888694D
:1015000040F020008861FFE706E0029801688869E2
:1015100040F020008861FFE700E0FFE7FFE7029A64
:10152000116853699069D2F81CE0A0F1010C6FF0CA
:10153000FF0000EB0E2040EA4C60126A013A1043B3
:101540000022CFF6FF7202EB03421043C8610298FB
:101550008068B0F5407F1CD1FFE7029A1168536A9A
:10156000906AD2F82CE001386FF0FF0C0CEB0E2CD7
:1015700040EA0C00D2F830C06FF00F0202EB0C1200
:1015800010430022CFF6FF7202EB03421043C86003
:10159000FFE702980168C26BD1F8C0001043C1F8A0
:1015A000C0000298FFF7E4F90299002088650299CB
:1015B0000866029A012182F85C108DF80F00FFE79F
:1015C0009DF80F0004B080BD80B5ACB02B9000201A
:1015D0002A90299028902790269004A88821FFF728
:1015E00046F82B9800684AF20041C4F20001884294
:1015F00046D1FFE704200590002004901B9004A82A
:1016000001F06EF918B1FFE7FFF7A6F9FFE7FFE772
:1016100040F6A040C4F20240016841F4007101604C
:10162000006800F4007003900398FFE7FFE740F6BE
:101630008C40C4F20240016841F002010160006880
:1016400000F0020002900298FFE76020269002203E
:101650002790002000902890299009202A9040F29D
:101660000040C4F2022026A900F0A0F8009A27202A
:101670000190114600F0F0FF019800F0E3FFFFE752
:101680002CB080BD80B584B00390029103980068AF
:101690004AF20041C4F20001884219D1FFE70398E1
:1016A00040F20011C2F2000101910A1D01F12C0368
:1016B0004021FFF7ABFB0198406B40B1FFE740F2E0
:1016C0000010C2F20000416B04308847FFE7FFE7DB
:1016D00004B080BD80B584B0039002910398006887
:1016E0004AF20041C4F20001884219D1FFE7039891
:1016F00040F20011C2F2000101910A1D01F12C0318
:101700004121FFF783FB0198406B40B1FFE740F2B6
:101710000010C2F20000416B04308847FFE7FFE78A
:1017200004B080BD82B00090009890F85C00012861
:1017300010D1FFE70099022081F85C000098016851
:10174000886920F0010088610099002008668DF802
:10175000070008E00099086E40F0040008660120C8
:101760008DF80700FFE79DF8070002B07047000002
:1017700081B0009001B0704781B0009001B0704717
:1017800082B00190009102B07047000082B00190D9
:10179000009102B07047000082B00190009102B049
:1017A0007047000081B0009001B0704785B0049090
:1017B000039100200090FFE7039800680099C8405B
:1017C000002800F05881FFE703980068009A012183
:1017D0009140084001900198002800F04881FFE7FF
:1017E00003984068022805D0FFE703984068122854
:1017F00028D1FFE7049800996FF0030202EA510133
:101800000844006A0290009800F0070081000F2051
:1018100000FA01F10298884302900398006900F0F1
:101820000F00009901F00701890000FA01F1029808
:101830000843029002980499009B02EA5302114463
:101840000862FFE7049800680290009841000320B6
:1018500000FA01F10298884302900398406800F072
:1018600003000099490000FA01F102980843029030
:101870000298049908600398406801280FD0FFE798
:101880000398406802280AD0FFE7039840681128AF
:1018900005D0FFE70398406812282FD1FFE704988E
:1018A0008068029000984100032000FA01F102983C
:1018B000884302900398C0680099490000FA01F13A
:1018C000029808430290029804998860049840683E
:1018D00002900099012000FA01F1029888430290D9
:1018E00003984068C0F30010009900FA01F10298D3
:1018F00008430290029804994860FFE70398406803
:10190000032818D0FFE70498C068029000984100AF
:10191000032000FA01F1029888430290039880683E
:101920000099490000FA01F10298084302900298D8
:101930000499C860FFE70398C079C006002840F109
:101940009580FFE7009820F0030042F26002C4F2A5
:10195000024280580290009800F00300C1000F205E
:1019600000FA01F102988843029004984FF6004172
:10197000CBF6FD510840800A009901F00301C9002F
:1019800000FA01F10298084302900298009921F0B0
:101990000301885042F20000C4F202400068029045
:1019A000019902988843029003988079C006002824
:1019B00005D5FFE70199029808430290FFE70298D6
:1019C00042F20001C4F20241086042F20400C4F293
:1019D000024000680290019902988843029003989F
:1019E00080798006002805D5FFE701990298084311
:1019F0000290FFE7029842F20401C4F2024108603B
:101A000042F28400C4F202400068029001990298F8
:101A100088430290039880798007002805D5FFE766
:101A20000199029808430290FFE7029842F284016C
:101A3000C4F20241086042F28000C4F20240006831
:101A40000290019902988843029003988079C00718
:101A500028B1FFE70199029808430290FFE7029836
:101A600042F28001C4F202410860FFE7FFE70098FC
:101A700001300090A0E605B07047000082B00190F0
:101A8000ADF802108DF801209DF8010028B1FFE7A4
:101A9000BDF802000199886104E0BDF802000199D7
:101AA0008862FFE702B0704741F21860C2F200009E
:101AB0000068704783B001900091019890F8410050
:101AC00020283BD1FFE7FFE7019890F8400001286C
:101AD00004D1FFE702208DF80B0033E001990120CB
:101AE00081F84000FFE7FFE70199242081F84100D9
:101AF00001980168086820F00100086001980168F9
:101B0000086820F480500860009A0198016808680D
:101B10001043086001980168086840F001000860FF
:101B20000199202081F84100FFE70199002081F808
:101B30004000FFE700208DF80B0003E002208DF845
:101B40000B00FFE79DF80B0003B0704784B00290D4
:101B50000191029890F84100202840D1FFE7FFE76B
:101B6000029890F84000012804D1FFE702208DF888
:101B70000F0038E00299012081F84000FFE7FFE7FD
:101B80000299242081F8410002980168086820F039
:101B9000010008600298006800680090009820F436
:101BA000706000900199009840EA01200090009830
:101BB00002990968086002980168086840F001000D
:101BC00008600299202081F84100FFE70299002077
:101BD00081F84000FFE700208DF80F0003E00220AD
:101BE0008DF80F00FFE79DF80F0004B0704700006C
:101BF00081B0009001B0704782B001908DF8031061
:101C0000ADF8002002B0704780B584B0039003980F
:101C100000688069029003980068006801909DF850
:101C20000900C00790B1FFE79DF804100020B0EB59
:101C3000D11F0BD0FFE70399486C40F001004864C6
:101C4000039801684FF48070C861FFE79DF80900B0
:101C500000F004010020B0EB910F12D0FFE79DF8D7
:101C600004100020B0EBD11F0BD0FFE70399486CA4
:101C700040F008004864039801684FF48060C86130
:101C8000FFE79DF8090000F002010020B0EB510FC2
:101C900012D0FFE79DF804100020B0EBD11F0BD04D
:101CA000FFE70399486C40F002004864039801681C
:101CB0004FF40070C861FFE70398406C00909DF8F6
:101CC000000010F00B0F05D0FFE70398009904F017
:101CD00041F9FFE704B080BD80B584B0039003985C
:101CE000006880690290039800680068019003987A
:101CF000406B30B1FFE70398436B0299019A984714
:101D0000FFE704B080BD000081B0009001B07047D3
:101D100080B582B00090009820B9FFE701208DF8CF
:101D200007007BE0009890F8410040B9FFE7009978
:101D3000002081F84000009800F0F8FAFFE70099D1
:101D4000242081F8410000980168086820F0010013
:101D5000086000980168406820F070600861009891
:101D60000168886820F4004088600098C0680128F5
:101D700007D1FFE700980168806840F40040886060
:101D800006E000980168806840F404408860FFE73E
:101D90000098C068022807D1FFE7009801684868EA
:101DA00040F40060486006E000980168486820F44C
:101DB00000604860FFE700980168486848F2000248
:101DC000C0F200221043486000980168C86820F4FF
:101DD0000040C860009A11681069536992691843FD
:101DE00040EA0220C860009A1168D069126A104364
:101DF000086000980168086840F0010008600099D8
:101E000000204864009A202182F84110009908635C
:101E1000009981F842008DF80700FFE79DF8070060
:101E200002B080BD81B0009001B0704710B588B09D
:101E300084460C980B98DDF828E0CDF818C0ADF872
:101E40001610ADF81420ADF81230ADF81000069859
:101E500090F84100202840F02681FFE70A9820B141
:101E6000FFE7BDF8100040B9FFE706994FF4007096
:101E7000486401208DF81F0019E1FFE7069890F8EB
:101E80004000012804D1FFE702208DF81F000EE179
:101E90000699012081F84000FFE7FFE7FFF704FE05
:101EA0000390069803996A4611604FF4004101229D
:101EB000192304F0C7FE20B1FFE701208DF81F00B1
:101EC000F5E00699222081F841000699402081F82A
:101ED00042000699002048640A99069A5162BDF8AA
:101EE0001010069A5185069948630698BDF8161099
:101EF000BDF81420BDF81230DDF830C0039CEE466A
:101F0000CEF80440CEF800C004F064FC50B1FFE706
:101F1000FFE70699002081F84000FFE701208DF8D7
:101F20001F00C4E00698408DB0F5807F14D3FFE712
:101F30000699FF2008850698BDF8161090F828200D
:101F4000EC4642F20043C8F20003CCF800304FF0F8
:101F5000807304F023FE14E00698408D06990885EE
:101F60000698BDF8161090F82820EC4642F200437F
:101F7000C8F20003CCF800304FF0007304F00EFEFE
:101F8000FFE7FFE706980C9B03996A46116004215E
:101F9000002204F057FE20B1FFE701208DF81F005A
:101FA00085E006980068406A0699496A08700699B3
:101FB000486A013048620699088D013808850699FB
:101FC000488D013848850698408DE8B3FFE70698AC
:101FD000008DC8BBFFE706980C9B03996A46116009
:101FE0008021002204F02EFE20B1FFE701208DF8B1
:101FF0001F005CE00698408DB0F5807F11D3FFE7AD
:102000000699FF2008850698BDF8161090F828203C
:10201000EC460023CCF800304FF0807304F0BEFD96
:1020200011E00698408D069908850698BDF81610AF
:1020300090F82820EC460023CCF800304FF00073D5
:1020400004F0ACFDFFE7FFE7FFE70698408D0028AE
:1020500098D1FFE706980C99039A04F055FE20B139
:10206000FFE701208DF81F0021E00698016820207D
:10207000C86106990A6851684EF60003CFF60063FE
:1020800019405160069981F841000699002081F8B5
:102090004200FFE70699002081F84000FFE700209A
:1020A0008DF81F0003E002208DF81F00FFE79DF868
:1020B0001F0008B010BD000010B588B084460C9811
:1020C0000B98DDF828E0CDF818C0ADF81610ADF883
:1020D0001420ADF81230ADF81000069890F84100C9
:1020E000202840F01B81FFE70A9820B1FFE7BDF8E8
:1020F000100040B9FFE706994FF4007048640120D2
:102100008DF81F000EE1FFE7069890F840000128C7
:1021100004D1FFE702208DF81F0003E1069901209A
:1021200081F84000FFE7FFE7FFF7BEFC0390069849
:1021300003996A4611604FF400410122192304F00B
:1021400081FD20B1FFE701208DF81F00EAE006992C
:10215000212081F841000699402081F8420006992B
:10216000002048640A99069A5162BDF81010069A38
:102170005185069948630698BDF81610BDF81420DD
:10218000BDF81230DDF830C0039CEE46CEF80440B6
:10219000CEF800C004F07EFB50B1FFE7FFE70699E0
:1021A000002081F84000FFE701208DF81F00B9E012
:1021B0000698408DB0F5807F11D3FFE70699FF2088
:1021C00008850698BDF8161090F82820EC460023E4
:1021D000CCF800304FF0807304F0E0FC11E006987A
:1021E000408D069908850698BDF8161090F82820AD
:1021F000EC460023CCF800304FF0007304F0CEFC26
:10220000FFE7FFE706980C99039A04F0CFFD20B191
:10221000FFE701208DF81F0084E006980168406AFE
:10222000007888620699486A013048620699488DAC
:10223000013848850699088D013808850698408D33
:10224000E8B3FFE70698008DC8BBFFE706980C9B34
:1022500003996A4611608021002204F0F3FC20B14A
:10226000FFE701208DF81F005CE00698408DB0F577
:10227000807F11D3FFE70699FF2008850698BDF8F7
:10228000161090F82820EC460023CCF800304FF0D0
:10229000807304F083FC11E00698408D0699088550
:1022A0000698BDF8161090F82820EC460023CCF8CC
:1022B00000304FF0007304F071FCFFE7FFE7FFE729
:1022C0000698408D00289DD1FFE706980C99039A47
:1022D00004F01AFD20B1FFE701208DF81F0021E076
:1022E000069801682020C86106990A6851684EF670
:1022F0000003CFF6006319405160069981F8410050
:102300000699002081F84200FFE70699002081F835
:102310004000FFE700208DF81F0003E002208DF849
:102320001F00FFE79DF81F0008B010BD80B5B0B0DA
:102330002F9000202E902D902C902B902A9008A862
:102340008821FEF794F92F98006845F20041C4F205
:102350000001884251D1FFE7002009904FF400515D
:102360000891199008A800F0BBFA18B1FFE7FEF732
:10237000F3FAFFE7FFE740F68C40C4F20240016841
:1023800041F004010160006800F004000790079824
:10239000FFE74FF440702A9012202B9000202C90E1
:1023A0002D9004202E9040F60000C4F202202AA9AD
:1023B000FFF7FCF9FFE740F69C40C4F202400168D9
:1023C00041F400110160006800F4001006900698C6
:1023D000FFE73320019000220292114600F03CF901
:1023E000019800F02FF9029A34200390114600F072
:1023F00033F9039800F026F946E02F98006845F677
:102400000001C4F2000188423DD1FFE7002009909D
:102410004FF4804108911A9008A800F061FA18B1B1
:10242000FFE7FEF799FAFFE7FFE740F68C40C4F2BA
:102430000240016841F004010160006800F00400FE
:1024400005900598FFE7C0202A9012202B900020CD
:102450002C902D9008202E9040F60000C4F202200F
:102460002AA9FFF7A3F9FFE740F69C40C4F2024017
:10247000016841F480010160006800F4800004906C
:102480000498FFE7FFE7FFE730B080BD81B0009020
:1024900001B0704781B0009001B0704740F2004138
:1024A000C4F20301086840F0010008600020704792
:1024B00040F29400C2F20000027841F21861C2F2C8
:1024C00000010868104408607047000080B582B0C1
:1024D000032000F0D9F801F0B5F940F62041C4F22C
:1024E0000241096801F00F024DF6F251C0F60001F9
:1024F000895CC84040F29001C2F2000108600420EB
:1025000002F0B4FC0F2000F011F820B1FFE7012029
:102510008DF8070005E000F093F800208DF8070023
:10252000FFE79DF8070002B080BD000080B586B0CF
:1025300004900020039040F29400C2F20000007862
:1025400020B9FFE701208DF8170075E04EF210006A
:10255000CEF2000000684007002812D5FFE740F2E5
:102560009000C2F20000006840F29401C2F2000143
:102570000A784FF47A71B1FBF2F1B0FBF1F00390FD
:1025800040E002F0E7FC02900298019040B1FFE7C2
:102590000198012816D0FFE70198022821D02FE0EA
:1025A00040F29000C2F20000006840F29401C2F2D2
:1025B00000010A784FF4FA51B1FBF2F1B0FBF1F0EF
:1025C00003901EE040F29400C2F2000001784FF444
:1025D0007A70B0FBF1F14FF4FA40B0FBF1F00390E8
:1025E0000FE040F29400C2F2000001784FF47A70DC
:1025F000B0FBF1F14FF40040B0FBF1F0039000E0CC
:10260000FFE7FFE7039802F07FFC20B1FFE701201E
:102610008DF8170010E004994FF0FF30002200926F
:1026200000F01AF80098049940F29802C2F20002F1
:1026300011608DF81700FFE79DF8170006B080BD08
:102640007047000080B582B0ADF80600BDF9060005
:102650000AF0C8FA02B080BD80B586B0ADF81600A9
:10266000049103920AF0D6FA0290BDF91600019087
:1026700002980499039A04F023FF014601980AF096
:10268000D1FA06B080BD000080B582B001900198FB
:102690000AF0EAFA02B080BD82B0019001980068A9
:1026A000009001990120C1F8D4020199002081F81D
:1026B000CC02009A516D41F001015165009A516DB3
:1026C00041F00201516502B07047000080B588B04A
:1026D0000690069820B9FFE701208DF81F00CAE098
:1026E000069890F8950240B9FFE70699002081F816
:1026F0009402069800F0C4F8FFE70699032081F8D9
:1027000095020698006805F0BFFD00208DF81700BF
:10271000FFE79DF8170006990979884239DAFFE743
:1027200006989DF8171001EB810100EBC101012013
:1027300048759DF81700069900EB800201EBC20175
:10274000087506989DF8171001EB810100EBC10197
:102750000020C87506999DF8172002EB820201EB54
:10276000C201486206999DF8172002EB820201EB34
:10277000C201886206999DF8172002EB820201EBE4
:10278000C201C862FFE79DF8170001308DF81700FD
:10279000BFE700208DF81700FFE79DF817000699A6
:1027A000097988423EDAFFE706989DF8171001EB99
:1027B000810100EBC101002081F855019DF817103F
:1027C000069A01EB810302EBC30282F854110699C9
:1027D0009DF8172002EB820201EBC20181F857013C
:1027E00006999DF8172002EB820201EBC201C1F8A5
:1027F000640106999DF8172002EB820201EBC201E9
:10280000C1F8680106999DF8172002EB820201EBDE
:10281000C201C1F86C01FFE79DF8170001308DF887
:102820001700BAE7069B1868197C8DF810105968D4
:102830009A68DB680393029201910199029A039BC3
:10284000DDF810C0EE46CEF800C005F0F1FC0699A8
:10285000002048740699012081F895020698007BB3
:10286000012804D1FFE70698FFF716FFFFE70020D5
:102870008DF81F00FFE79DF81F0008B080BD000025
:1028800080B5A6B0259002A88821FDF7F0FE259816
:10289000006846F20001C4F2010188421ED1FFE740
:1028A00010200390002002903020219002A800F018
:1028B00017F818B1FFE7FEF74FF8FFE7FFE740F61C
:1028C000A440C4F20240016841F0807101600068D8
:1028D00000F0807001900198FFE7FFE726B080BD0F
:1028E00080B596B0159000208DF84B008DF84A0009
:1028F0001598C078C00760B1FFE740F6E841C4F220
:102900000241086820F04040159A126B104308609D
:10291000FFE715980068C00780B3FFE71598406B84
:102920001190052810D81199DFE801F003040E0B6F
:102930000C0D0DE01598083004F0FAFD8DF84B00F1
:1029400006E005E004E003E001208DF84B00FFE71E
:102950009DF84B0060B9FFE740F6D841C4F2024150
:10296000086820F00700159A526B1043086004E0D5
:102970009DF84B008DF84A00FFE7FFE715980078B7
:102980008007002840F14380FFE71598806B109086
:10299000282822D81099DFE801F0152020202020D7
:1029A0002020162020202020202020202020202031
:1029B00020201D202020202020201E20202020201C
:1029C00020201F000DE01598083004F0B1FD8DF8AF
:1029D0004B0006E005E004E003E001208DF84B0029
:1029E000FFE79DF84B0060B9FFE740F6D841C4F21D
:1029F0000241086820F03800159A926B1043086075
:102A000004E09DF84B008DF84A00FFE7FFE71598BA
:102A10000078400700283CD5FFE71598C06B0F9061
:102A200090B1FFE70F9840280FD0FFE70F98C0281C
:102A300012D0FFE70F98B0F5807F0ED0FFE70F9818
:102A4000B0F5A07F0AD00AE00DE01598083004F038
:102A50006FFD8DF84B0006E005E004E003E0012087
:102A60008DF84B00FFE79DF84B0060B9FFE740F69B
:102A7000D841C4F20241086820F4E070159AD26B84
:102A80001043086004E09DF84B008DF84A00FFE712
:102A9000FFE715984078C00600283ED5FFE7159857
:102AA000006C0E90A0B1FFE70E98B0F1807F10D0BF
:102AB000FFE70E98B0F1407F12D0FFE70E98B0F11B
:102AC000806F0ED0FFE70E98B0F1A06F0AD00AE039
:102AD0000DE01598083004F02BFD8DF84B0006E052
:102AE00005E004E003E001208DF84B00FFE79DF8CE
:102AF0004B0060B9FFE740F6E041C4F202410868CC
:102B000020F0E060159A126C1043086004E09DF814
:102B10004B008DF84A00FFE7FFE7159840788006E4
:102B2000002838D5FFE71598406C0D9078B1FFE785
:102B30000D98B0F5803F0BD0FFE70D98B0F5003F42
:102B40000DD0FFE70D98B0F5403F09D009E00CE04B
:102B50001598083004F0ECFC8DF84B0005E004E01B
:102B600003E001208DF84B00FFE79DF84B0060B9B2
:102B7000FFE740F6E441C4F20241086820F4403027
:102B8000159A526C1043086004E09DF84B008DF8D4
:102B90004A00FFE7FFE7159840784006002838D53F
:102BA000FFE71598806C0C9078B1FFE70C98B0F5B2
:102BB000802F0BD0FFE70C98B0F5002F0DD0FFE76A
:102BC0000C98B0F5402F09D009E00CE015980830BA
:102BD00004F0AEFC8DF84B0005E004E003E00120BA
:102BE0008DF84B00FFE79DF84B0060B9FFE740F61A
:102BF000E441C4F20241086820F44020159A926C26
:102C00001043086004E09DF84B008DF84A00FFE790
:102C1000FFE715988078C00790B3FFE71598C06C60
:102C20000B9050B1FFE70B98B0F1807F06D0FFE723
:102C30000B98B0F1007F08D008E00BE01598083041
:102C400004F076FC8DF84B0004E003E001208DF8E1
:102C50004B00FFE79DF84B0060B9FFE740F6E44109
:102C6000C4F20241086820F04070159AD26C1043FB
:102C7000086004E09DF84B008DF84A00FFE7FFE78D
:102C800015984079C006002832D5FFE71598006DE9
:102C90000A9050B1FFE70A98B0F1806F06D0FFE7C5
:102CA0000A98B0F1006F08D008E00BE015980830E2
:102CB00004F03EFC8DF84B0004E003E001208DF8A9
:102CC0004B00FFE79DF84B0060B9FFE740F6E44199
:102CD000C4F20241086820F04060159A126D10435A
:102CE000086004E09DF84B008DF84A00FFE7FFE71D
:102CF000159840790007002811D5FFE7FFE740F657
:102D00001C41C4F20241086820F400400860159894
:102D1000D0F88020086810430860FFE7FFE71598A7
:102D20008078800700283ED5FFE71598406D099010
:102D3000A0B1FFE70998B0F5807F10D0FFE70998B0
:102D4000B0F5407F12D0FFE70998B0F5806F0ED044
:102D5000FFE70998B0F5A06F0AD00AE00DE01598DA
:102D6000083004F0E5FB8DF84B0006E005E004E0D8
:102D700003E001208DF84B00FFE79DF84B0060B9A0
:102D8000FFE740F6DC41C4F20241086820F4E0604D
:102D9000159A526D1043086004E09DF84B008DF8C1
:102DA0004A00FFE7FFE715988078400700283ED5E6
:102DB000FFE71598806D0890A0B1FFE70898B0F57F
:102DC000805F10D0FFE70898B0F5405F12D0FFE7B2
:102DD0000898B0F5804F0ED0FFE70898B0F5A04FE7
:102DE0000AD00AE00DE01598083004F0A1FB8DF838
:102DF0004B0006E005E004E003E001208DF84B0005
:102E0000FFE79DF84B0060B9FFE740F6DC41C4F2F4
:102E10000241086820F4E040159A926D1043086062
:102E200004E09DF84B008DF84A00FFE7FFE7159896
:102E300080788006002832D5FFE71598406E07900D
:102E4000022809D3FFE70798022806D0FFE7079872
:102E50000338032808D308E00BE01598083004F085
:102E600067FB8DF84B0004E003E001208DF84B0078
:102E7000FFE79DF84B0060B9FFE740F6E841C4F278
:102E80000241086820F00700159A526E104308604E
:102E900004E09DF84B008DF84A00FFE7FFE7159826
:102EA00040798007002825D5FFE71598806E0690A9
:102EB00020B1FFE70698082801D001E004E003E014
:102EC00001208DF84B00FFE79DF84B0060B9FFE74C
:102ED00040F6E841C4F20241086820F00800159A63
:102EE000926E1043086004E09DF84B008DF84A0094
:102EF000FFE7FFE71598C0788007002840F1B18010
:102F0000FFE740F62401C4F20241086840F00100E6
:102F10000860FEF7C9FD1390FFE740F62400C4F2F5
:102F200002400068C00760B9FFE7FEF7BDFD1399D6
:102F3000401A032804D3FFE703208DF84B0000E07C
:102F4000EBE79DF84B00002840F08580FFE740F656
:102F5000F040C4F20240006800F4407014901498ED
:102F6000C8B1FFE714981599896F884213D0FFE71D
:102F700040F6F041C4F20241086820F44070149019
:102F8000086840F480300860086820F480300860E9
:102F900014980860FFE79DF85000C007E0B1FFE714
:102FA000FEF782FD1390FFE740F6F040C4F20240C6
:102FB0000068800700280ED4FFE7FEF775FD13991F
:102FC000401A41F28931884204D3FFE703208DF88B
:102FD0004B0000E0E8E7FFE79DF84B00A8BBFFE7E8
:102FE000FFE71598806F00F44070B0F5407F12D174
:102FF000FFE740F61C41C4F20241086820F47C500F
:10300000159A926F4FF6F043C0F6FF731A4040EAEC
:103010001210086008E040F61C41C4F20241086842
:1030200020F47C500860FFE740F6F041C4F2024112
:10303000086820F4407008601598826F6FF31F32A3
:10304000086810430860FFE704E09DF84B008DF826
:103050004A00FFE704E09DF84B008DF84A00FFE7C7
:10306000FFE71598C0784007002837D5FFE7159887
:10307000006E059060B1FFE70598102809D0FFE7C2
:10308000059820280ED0FFE7059830280BD00BE0DC
:103090000EE040F62841C4F20241086840F40030D6
:1030A000086005E004E003E001208DF84B00FFE735
:1030B0009DF84B0060B9FFE740F6E841C4F20241D9
:1030C000086820F03000159A126E1043086004E082
:1030D0009DF84B008DF84A00FFE7FFE71598C07890
:1030E0000007002837D5FFE71598C06E0490042824
:1030F00017D80499DFE801F0030C1513140040F60B
:103100002841C4F20241086840F4003008600CE035
:103110001598083004F00CFA8DF84B0005E004E037
:1031200003E001208DF84B00FFE79DF84B0060B9EC
:10313000FFE740F6E041C4F20241086820F00700D2
:10314000159AD26E1043086004E09DF84B008DF88C
:103150004A00FFE7FFE71598C078C006002845D56C
:10316000FFE71598006F0390202825D80399DFE822
:1031700001F011232323232323231A23232323238F
:103180002323232323232323232321232323232311
:103190002323220040F62841C4F20241086840F48B
:1031A000003008600CE01598083004F0C1F98DF883
:1031B0004B0005E004E003E001208DF84B00FFE741
:1031C0009DF84B0060B9FFE740F6E041C4F20241D0
:1031D000086820F03800159A126F1043086004E068
:1031E0009DF84B008DF84A00FFE7FFE71598C0787F
:1031F000800600283ED5FFE71598406F029068B121
:10320000FFE70298402812D0FFE70298C02815D0A7
:10321000FFE70298B0F5807F11D011E040F6284119
:10322000C4F20241086840F4003008600CE01598D0
:10323000083004F07DF98DF84B0005E004E003E070
:1032400001208DF84B00FFE79DF84B0060B9FFE7C8
:1032500040F6E041C4F20241086820F4E070159A9B
:10326000526F1043086004E09DF84B008DF84A004F
:10327000FFE7FFE715980079400700283AD5FFE7F8
:103280001598C06D019050B1FFE70198B0F5807FAF
:1032900006D0FFE70198B0F5007F0AD010E013E0F8
:1032A00040F62841C4F20241086840F4003008604A
:1032B0000AE01598083004F03BF98DF84B0003E064
:1032C00001208DF84B00FFE79DF84B0060B9FFE748
:1032D00040F6E841C4F20241086820F44070159AB3
:1032E000D26D1043086004E09DF84B008DF84A0051
:1032F000FFE7FFE715980079C006002839D5FFE7FA
:103300001598C06F0090102808D0FFE7009820287B
:103310000DD0FFE70098302810D010E040F628418B
:10332000C4F20241086840F4003008600BE01598D0
:10333000083004F0FDF88DF84B0004E003E00120B4
:103340008DF84B00FFE79DF84B0060B9FFE740F6B2
:10335000E441C4F20241086820F03000159AD26FAF
:103360001043086004E09DF84B008DF84A00FFE729
:10337000FFE79DF84A0016B080BD000080B586B01A
:1033800004900391049820B9FFE701208DF81700FD
:103390003AE2039842F20001C4F20201096801F026
:1033A0000F01884216D9FFE742F20000C4F2020082
:1033B000016821F00F01039A11430160006800F0D9
:1033C0000F000399884204D0FFE701208DF8170011
:1033D0001AE2FFE704980078C00600281BD5FFE733
:1033E0000498406940F62041C4F20241096801F4A2
:1033F000E041B0EB112F0DD9FFE740F62041C4F2B8
:103400000241086820F4E040049A526940EA022030
:103410000860FFE7FFE704980078000700281BD545
:10342000FFE70498006940F62041C4F202410968B0
:1034300001F4E061B0EB111F0DD9FFE740F6204128
:10344000C4F20241086820F4E060049A126940EA7C
:1034500002100860FFE7FFE70498007840070028A3
:1034600019D5FFE70498C06840F62041C4F2024134
:10347000096801F0700188420CD9FFE740F620414D
:10348000C4F20241086820F07000049AD268104328
:103490000860FFE7FFE7049800788007002819D547
:1034A000FFE70498806840F62041C4F202410968B1
:1034B00001F00F0188420CD9FFE740F62041C4F229
:1034C0000241086820F00F00049A926810430860D7
:1034D000FFE7FFE704980078C007002800F0D180DC
:1034E000FFE70498406803280ED1FFE740F600404C
:1034F000C4F2024000688001002804D4FFE70120E4
:103500008DF8170080E135E00498406802280ED15C
:10351000FFE740F60040C4F2024000688003002844
:1035200004D4FFE701208DF817006DE121E0049835
:10353000406801280ED1FFE740F60040C4F2024087
:1035400000688005002804D4FFE701208DF81700EB
:103550005AE10DE040F60040C4F2024000688007E6
:10356000002804D4FFE701208DF817004CE1FFE7A5
:10357000FFE7FFE740F61C41C4F20241086820F073
:103580000300049A526810430860FEF78DFA019018
:103590000498406803281AD1FFE7FFE740F61C4073
:1035A000C4F20240006800F0180018280ED0FFE7AF
:1035B000FEF77AFA0199401A41F28931884204D320
:1035C000FFE703208DF817001EE1E7E758E00498B5
:1035D000406802281AD1FFE7FFE740F61C40C4F21A
:1035E0000240006800F0180010280ED0FFE7FEF738
:1035F0005BFA0199401A41F28931884204D3FFE70E
:1036000003208DF81700FFE0E7E738E004984068F2
:1036100001281AD1FFE7FFE740F61C40C4F2024040
:10362000006800F0180008280ED0FFE7FEF73CFA0B
:103630000199401A41F28931884204D3FFE70320FF
:103640008DF81700E0E0E7E718E0FFE740F61C40E0
:10365000C4F20240006810F0180F0ED0FFE7FEF72A
:1036600023FA0199401A41F28931884204D3FFE7D5
:1036700003208DF81700C7E0E8E7FFE7FFE7FFE763
:10368000FFE7049800788007002819D5FFE7049821
:10369000806840F62041C4F20241096801F00F0140
:1036A00088420CD2FFE740F62041C4F2024108688C
:1036B00020F00F00049A926810430860FFE7FFE7CC
:1036C000039842F20001C4F20201096801F00F01FF
:1036D000884216D2FFE742F20000C4F202000168FD
:1036E00021F00F01039A11430160006800F00F0000
:1036F0000399884204D0FFE701208DF8170083E08A
:10370000FFE7049800784007002819D5FFE70498E0
:10371000C06840F62041C4F20241096801F070011E
:1037200088420CD2FFE740F62041C4F2024108680B
:1037300020F07000049AD26810430860FFE7FFE7AA
:1037400004980078000700281BD5FFE7049800695B
:1037500040F62041C4F20241096801F4E061B0EB97
:10376000111F0DD2FFE740F62041C4F20241086864
:1037700020F4E060049A126940EA02100860FFE752
:10378000FFE704980078C00600281BD5FFE70498DF
:10379000406940F62041C4F20241096801F4E04169
:1037A000B0EB112F0DD2FFE740F62041C4F20241E9
:1037B000086820F4E040049A526940EA0220086058
:1037C000FFE7FFE700F03EF840F62041C4F2024177
:1037D000096801F00F024DF6F251C0F60001895C54
:1037E000C84040F29001C2F20001086040F2980027
:1037F000C2F200000068FEF799FE8DF80B009DF8FC
:103800000B008DF81700FFE79DF8170006B080BD8C
:1038100080B500F017F840F62041C4F20241096873
:1038200001F00F024DF6F251C0F60001895C01F083
:103830001F0120FA01F140F29000C2F20000016085
:10384000006880BD89B040F61C40C4F202400068A8
:1038500000F01800082806D1FFE740F60010C0F27B
:103860003D00049048E140F61C40C4F2024000686C
:1038700010F0180F21D1FFE740F60040C4F20240DB
:10388000006800F020010020B0EB511F0ED0FFE7D0
:1038900040F60040C4F202400068C0F3C10149F2A2
:1038A0000000C0F2D030C840049005E049F20000AA
:1038B000C0F2D0300490FFE71DE140F61C40C4F296
:1038C0000240006800F01800102806D1FFE747F614
:1038D0004000C0F27D1004900CE140F61C40C4F2A0
:1038E0000240006800F01800182840F0FC80FFE754
:1038F00040F62840C4F20240016801F0030108913B
:103900000168C1F3052106910068C0F3001005901D
:10391000059840F63841C4F20241096889B2C908E5
:1039200000FB01F000EE100AB8EE400A8DED020A2D
:103930000698002800F0D380FFE70898009001283F
:1039400009D0FFE70098022800F08D80FFE700987B
:10395000032864D088E040F60040C4F202400068CA
:1039600000F020010020B0EB511F33D0FFE740F6FC
:103970000040C4F202400068C0F3C10149F20000F7
:10398000C0F2D030C84003909DED030AB8EE400A63
:103990009DED061AB8EE411A80EE010A40F6344059
:1039A000C4F2024000686FF35F2001EE100AB8EE27
:1039B000411A9DED022A9FED533A22EE032A31EE81
:1039C000021AB7EE002A31EE021A20EE010A8DED3E
:1039D000010A23E09DED060AB8EE401A9FED4A0A5F
:1039E00080EE010A40F63440C4F2024000686FF3F2
:1039F0005F2001EE100AB8EE411A9DED022A9FEDFC
:103A0000413A22EE032A31EE021AB7EE002A31EED5
:103A1000021A20EE010A8DED010AFFE748E09DED54
:103A2000060AB8EE401A9FED360A80EE010A40F60B
:103A30003440C4F2024000686FF35F2001EE100AC8
:103A4000B8EE411A9DED022A9FED2E3A22EE032A8E
:103A500031EE021AB7EE002A31EE021A20EE010A08
:103A60008DED010A24E0FFE79DED060AB8EE401A4D
:103A70009FED260A80EE010A40F63440C4F202406F
:103A800000686FF35F2001EE100AB8EE411A9DED59
:103A9000022A9FED1C3A22EE032A31EE021AB7EEFB
:103AA000002A31EE021A20EE010A8DED010AFFE72D
:103AB00040F63440C4F20240006881B2012000EBBD
:103AC000512007909DED010A9DED071AB8EE411AAD
:103AD00080EE010ABCEEC00A8DED040A02E000206F
:103AE0000490FFE705E049F20000C0F2D0300490F6
:103AF000FFE7FFE7FFE7FFE7049809B0704700BF63
:103B000020BCBE4B000000390024744C0024744AD1
:103B100080B588B00690069828B9FFE701208DF897
:103B20001F0000F0EFBC40F61C40C4F202400068E9
:103B300000F01800049040F62840C4F202400068EB
:103B400000F00300039006980078C006002840F1BA
:103B50008080FFE70498082808D0FFE70498182819
:103B60001DD1FFE70398022819D1FFE70698C06925
:103B700028B9FFE701208DF81F0000F0C3BCFFE764
:103B800040F61841C4F20241086820F47C10069AFD
:103B9000126A40EA02400860FFE7FFE758E0069833
:103BA000C06988B3FFE740F60041C4F202410868EB
:103BB00040F480700860FDF777FF0590FFE740F65E
:103BC0000040C4F202400068800500280DD4FFE7E1
:103BD000FDF76AFF0599401A032805D3FFE7032084
:103BE0008DF81F0000F08EBCE9E7FFE740F61841B2
:103BF000C4F20241086820F47C10069A126A40EA76
:103C000002400860FFE722E040F60041C4F20241B2
:103C1000086820F480700860FDF746FF0590FFE714
:103C200040F60040C4F202400068800500280DD52F
:103C3000FFE7FDF739FF0599401A032805D3FFE791
:103C400003208DF81F0000F05DBCE9E7FFE7FFE708
:103C5000FFE706980078C007002800F0B980FFE76A
:103C60000498102808D0FFE7049818280ED1FFE721
:103C7000039803280AD1FFE70698406828B9FFE7B0
:103C800001208DF81F0000F03DBCA0E0FFE7069882
:103C90004068B0F5803F09D1FFE740F60041C4F22B
:103CA0000241086840F48030086056E00698406899
:103CB00088B9FFE740F60041C4F20241086820F4E9
:103CC00080300860086820F480100860086820F4DC
:103CD0008020086040E006984068B0F5A02F11D120
:103CE000FFE740F60041C4F20241086840F480203A
:103CF0000860086820F480100860086840F480308C
:103D0000086028E006984068B0F5A81F11D1FFE7C9
:103D100040F60041C4F20241086840F48020086087
:103D2000086840F480100860086840F4803008603B
:103D300010E040F60041C4F20241086820F48030EF
:103D40000860086820F480200860086820F480106B
:103D50000860FFE7FFE7FFE7FFE7FFE70698406837
:103D6000D0B1FFE7FDF7A0FE0590FFE740F6004069
:103D7000C4F202400068800300280CD4FFE7FDF77E
:103D800093FE0599401A652804D3FFE703208DF8B8
:103D90001F00B7E3EAE719E0FDF786FE0590FFE7AD
:103DA00040F60040C4F202400068800300280CD5B1
:103DB000FFE7FDF779FE0599401A652804D3FFE770
:103DC00003208DF81F009DE3EAE7FFE7FFE7FFE729
:103DD000069800788007002840F1C380FFE7049828
:103DE00040B1FFE7049818285ED1FFE70398012847
:103DF0005AD1FFE70698C06820B9FFE701208DF887
:103E00001F007FE3049840BBFFE740F60040C4F288
:103E10000240006800F018000699096988421BD02A
:103E2000FFE740F60041C4F20241086820F01800A4
:103E3000069A126910430860FFF7EAFC40F2980006
:103E4000C2F200000068FEF771FB20B1FFE701201D
:103E50008DF81F0056E3FFE7FFE7FDF725FE05900D
:103E6000FFE740F60040C4F20240006880070028E7
:103E70000CD4FFE7FDF718FE0599401A032804D378
:103E8000FFE703208DF81F003CE3EAE740F610410E
:103E9000C4F20241086820F4FE00069A526940EA22
:103EA00002400860FFE75BE00698C068A8B3FFE740
:103EB00040F60041C4F20241086820F01800069A5A
:103EC000126910430860086840F001000860FDF7BF
:103ED000EBFD0590FFE740F60040C4F202400068A9
:103EE000800700280CD4FFE7FDF7DEFD0599401A96
:103EF000032804D3FFE703208DF81F0002E3EAE75D
:103F000040F61041C4F20241086820F4FE00069A0F
:103F1000526940EA0240086021E040F60041C4F2E4
:103F20000241086820F001000860FDF7BDFD059022
:103F3000FFE740F60040C4F2024000688007002816
:103F40000CD5FFE7FDF7B0FD0599401A032804D30F
:103F5000FFE703208DF81F00D4E2EAE7FFE7FFE761
:103F6000FFE7069800780007002849D5FFE7069884
:103F7000806910B3FFE740F6F041C4F202410868DF
:103F800040F080600860FDF78FFD0590FFE740F688
:103F9000F040C4F202400068000100280CD4FFE7A2
:103FA000FDF782FD0599401A032804D3FFE703209B
:103FB0008DF81F00A6E2EAE721E040F6F041C4F2E6
:103FC0000241086820F080600860FDF76DFD0590F3
:103FD000FFE740F6F040C4F202400068000100280C
:103FE0000CD5FFE7FDF760FD0599401A032804D3BF
:103FF000FFE703208DF81F0084E2EAE7FFE7FFE711
:10400000069800784007002840F1CC80FFE740F692
:104010002400C4F202400068C00708BBFFE740F676
:104020002401C4F20241086840F001000860FDF775
:104030003BFD0590FFE740F62400C4F20240006813
:10404000C00760B9FFE7FDF72FFD0599401A032867
:1040500004D3FFE703208DF81F0053E2EBE7FFE7EF
:10406000FFE706988068012809D1FFE740F6F04194
:10407000C4F20241086840F00100086054E006986C
:10408000806888B9FFE740F6F041C4F20241086851
:1040900020F001000860086820F0800008600868CF
:1040A00020F0040008603EE006988068052811D1E1
:1040B000FFE740F6F041C4F20241086840F0040016
:1040C0000860086820F080000860086840F001007F
:1040D000086027E006988068852811D1FFE740F640
:1040E000F041C4F20241086840F00400086008682A
:1040F00040F080000860086840F00100086010E0AF
:1041000040F6F041C4F20241086820F00100086066
:10411000086820F004000860086820F0800008604B
:10412000FFE7FFE7FFE7FFE7FFE706988068E0B1FA
:10413000FFE7FDF7B9FC0590FFE740F6F040C4F259
:1041400002400068800700280ED4FFE7FDF7ACFCB2
:104150000599401A41F28931884204D3FFE70320D0
:104160008DF81F00CEE1E8E71BE0FDF79DFC059010
:10417000FFE740F6F040C4F20240006880070028E4
:104180000ED5FFE7FDF790FC0599401A41F2893101
:10419000884204D3FFE703208DF81F00B2E1E8E76F
:1041A000FFE7FFE7069800788006002849D5FFE77B
:1041B0000698406A10B3FFE740F60041C4F202419E
:1041C000086840F480500860FDF76EFC0590FFE73A
:1041D00040F60040C4F202400068800400280CD47D
:1041E000FFE7FDF761FC0599401A032804D3FFE7B8
:1041F00003208DF81F0085E1EAE721E040F6004149
:10420000C4F20241086820F480500860FDF74CFCBD
:104210000590FFE740F60040C4F2024000688004C9
:1042200000280CD5FFE7FDF73FFC0599401A03284D
:1042300004D3FFE703208DF81F0063E1EAE7FFE7FF
:10424000FFE70698806A002800F05881FFE704988D
:10425000182800F0D580FFE70698806A022840F011
:10426000A180FFE740F60041C4F20241086820F057
:1042700080700860FDF718FC0590FFE740F60040ED
:10428000C4F202400068800100280CD5FFE7FDF76A
:104290000BFC0599401A032804D3FFE703208DF88F
:1042A0001F002FE1EAE7FFE740F62841C4F2024190
:1042B000086843F603729043069BDA6A1B6B42EA76
:1042C0000322104308600699486BD1F838C0CB6BC5
:1042D0000A6C01386FF35F204FF60061CFF6FF7173
:1042E00001EB4C2189B208440021CFF6FF7101EBAC
:1042F000034101F4FE0108444FF07F4101EB0261EC
:1043000001F0FE41084440F63441C4F20241086025
:10431000FFE740F62841C4F202410091086820F00E
:10432000100008600698C06CC00040F63842C4F225
:1043300002421060086840F010000860086820F031
:104340000C00069A526C10430860086820F02000A8
:10435000069A926C10430860086840F48030086048
:1043600040F60041C4F20241086840F080700860E5
:10437000FDF79AFB0590FFE740F60040C4F20240CB
:104380000068800100280CD4FFE7FDF78DFB05993C
:10439000401A032804D3FFE703208DF81F00B1E083
:1043A000EAE72CE040F60041C4F20241086820F040
:1043B00080700860FDF778FB0590FFE740F600404D
:1043C000C4F202400068800100280CD5FFE7FDF729
:1043D0006BFB0599401A032804D3FFE703208DF8EF
:1043E0001F008FE0EAE740F62841C4F20241086866
:1043F0004FF6FC72CFF6F87210400860FFE77CE0E1
:1044000040F62840C4F202400068029040F6344072
:10441000C4F20240006801900698806A012837D0F3
:10442000FFE7029800F003000699C96A88422FD17D
:10443000FFE7029800F47C510698006BB0EB112F57
:1044400026D1FFE701986FF35F200699496B013988
:1044500088421DD1FFE7BDF804100698806B013833
:10446000B0EB512F14D1FFE7019800F4FE0106983C
:10447000C06B0138B0EB114F0AD1FFE7019800F093
:10448000FE410698006C0138B0EB116F04D0FFE7D5
:1044900001208DF81F0035E040F63840C4F202409C
:1044A000006881B20698C06CB0EBD10F24D0FFE752
:1044B00040F62841C4F20241086820F0100008606C
:1044C000FDF7F2FA0590FFE7FDF7EEFA0599401ABD
:1044D00008B9FFE7F8E70698C06CC00040F638411D
:1044E000C4F20241086040F62841C4F20241086863
:1044F00040F010000860FFE7FFE7FFE700208DF8BD
:104500001F00FFE79DF81F0008B080BD80B586B092
:104510000490049820B9FFE701208DF8170004E10A
:104520000498006808B9FFE700E0FFE70498406AD4
:1045300008B9FFE7FFE70499002088620498006843
:1045400048B9FFE70498C068102804D3FFE70120AA
:104550008DF81700E9E0049803F02CF90290049814
:10456000006820B9FFE7029808281FD8FFE70498E1
:10457000006843F20001C4F20101884212D0FFE753
:104580000498006843F60001C4F20001884209D093
:10459000FFE70498006843F60041C4F20001884236
:1045A00008D1FFE70298112804D3FFE701208DF816
:1045B0001700BAE0049890F8890040B9FFE7049921
:1045C000002081F88800049800F0B4F8FFE704990F
:1045D000022081F8890004980168086820F0010031
:1045E000086004980068806800F4F810039004984C
:1045F0008069B0F1806F1BD1FFE704984068B0F587
:10460000800F04D1FFE70498806B50B1FFE7049856
:10461000406868B9FFE70498806BB0F1805F07D10C
:10462000FFE704980168086840F480500860FFE7DD
:10463000049880794006002810D5FFE70498C068E8
:1046400007280BD3FFE704980068006820F4807007
:10465000049A1168126D1043086006E0049801681E
:10466000086820F480700860FFE7049B1968DA6826
:10467000D869D3F828C040EA0C00DDF80CC040EA45
:104680000C00DB6B184310438860049A0192506B56
:10469000516A0843916B0843916908431168D2F845
:1046A00004C09368D2F810E040EA0E00D2F814E09B
:1046B00040EA0E00D2F820E040EA0E0040EA0C008A
:1046C000D2F84CC040EA0C001843936C1843936D29
:1046D0001843D36D1843126E1043C86004984068A5
:1046E00008B9FFE7FFE704980168086D20F00100B2
:1046F000086504988079400600280BD5FFE70498E8
:104700000068C06820F00040049A1168526D1043A0
:10471000C860FFE704990020C1F88C00049A0121C9
:1047200082F889108DF81700FFE79DF8170006B092
:1047300080BD000080B5B2B03190002030902F9045
:104740002E902D902C900AA88821FBF790FF31988D
:10475000006843F20001C4F20101884250D1FFE732
:1047600000200B904FF000610A9125900AA8FEF7F7
:10477000B7F818B1FFE7FCF7EFF8FFE7FFE740F6FF
:10478000A440C4F20240016841F480510160006815
:1047900000F4805009900998FFE7FFE740F68C404D
:1047A000C4F20240016841F004010160006800F0B9
:1047B000040008900898FFE701202C900220009048
:1047C0002D90002001902E902F900520309040F6E3
:1047D0000000C4F2022002902CA90391FCF7E6FF2E
:1047E000009B019A029803994FF00C0CCDF8B0C0D1
:1047F0002D932E922F9204223092FCF7D7FF8DE05A
:104800003198006843F60001C4F2000188423ED1AD
:10481000FFE700200B904FF080510A9126900AA8E4
:10482000FEF75EF818B1FFE7FCF796F8FFE7FFE741
:1048300040F69C40C4F20240016841F480410160AE
:10484000006800F4804007900798FFE7FFE740F614
:104850008C40C4F20240016841F00201016000682E
:1048600000F0020006900698FFE74FF460402C909D
:1048700002202D9000202E902F900520309040F2A5
:104880000040C4F202202CA9FCF790FF45E03198CB
:10489000006843F60041C4F2000188423CD1FFE7C2
:1048A00000200B904FF000510A9127900AA8FEF7C4
:1048B00017F818B1FFE7FCF74FF8FFE7FFE740F6FE
:1048C0009C40C4F20240016841F40041016000686C
:1048D00000F4004005900598FFE7FFE740F68C40A4
:1048E000C4F20240016841F001010160006800F07B
:1048F000010004900498FFE70E202C9002202D90D8
:1049000000202E902F90062030900020C4F202202C
:104910002CA9FCF74BFFFFE7FFE7FFE732B080BDB4
:1049200080B58EB0DDF840C00C900B910A92ADF8C6
:1049300026300C980068203008900C9800683030C1
:104940000790FDF7B1F80690BDF82600ADF812000B
:10495000BDF82600ADF810000C9890F889000128E9
:1049600004D0FFE702208DF837007AE20B9838B1C7
:10497000FFE70A9820B1FFE7BDF8260020B9FFE75E
:1049800001208DF837006CE2FFE70C9890F8880062
:10499000012804D1FFE702208DF8370061E20C996D
:1049A000012081F88800FFE7FFE70C99052081F8D6
:1049B00089000C990020C1F88C000A990C9AD166E4
:1049C000BDF826100C9AA2F87210BDF826100C9AA9
:1049D000A2F870100B990C9A5166BDF826100C9A2B
:1049E000A2F86A10BDF826100C9AA2F868100C996B
:1049F00088670C99C8670C980068C06820F4C020CC
:104A00000C990968C8600C98006843F20001C4F270
:104A10000101884212D0FFE70C98006843F60001BC
:104A2000C4F20001884209D0FFE70C98006843F601
:104A30000041C4F20001884203D1FFE71020059035
:104A400002E008200590FFE70C98006840684FF6E8
:104A5000FF718843BDF8261008440C990968486026
:104A60000C980168086840F0010008600C984068E4
:104A7000B0F5800F07D1FFE70C980168086840F493
:104A800000700860FFE70C98C0681028C0F0A7808D
:104A9000FFE70C98006843F20001C4F2010188426C
:104AA00013D0FFE70C98006843F60001C4F2000140
:104AB00088420AD0FFE70C98006843F60041C4F230
:104AC0000001884240F08B80FFE705988008059040
:104AD000FFE7BDF812100120039039B9FFE7BDF8D8
:104AE0001000002818BF01200390FFE70398C007BB
:104AF000002873D0FFE70C98006840698007002801
:104B000022D5FFE7BDF81200F0B1FFE7BDF81000B5
:104B1000BDF81210059A1144884215D2FFE70C988F
:104B20000168406E006808620C99486E043048665F
:104B30000C99B1F86A000138A1F86A000C98B0F835
:104B40006A00ADF81200FFE70C980068406948F26F
:104B5000080108421AD0FFE7BDF81000B0B1FFE726
:104B60000C980068006B0C99C96E08600C99C86EAF
:104B70000430C8660C99B1F872000138A1F87200CF
:104B80000C98B0F87200ADF81000FFE7FCF78CFF4E
:104B90000699401A1099884204D3FFE71098013013
:104BA00018B9FFE71098C0B9FFE70C9802F076FD3E
:104BB0000C99D1F88C0040F48070C1F88C000C99ED
:104BC000012081F88900FFE70C99002081F8880016
:104BD000FFE703208DF8370043E17AE714E10C98F2
:104BE000C0680828C0F08880FFE705984008059055
:104BF000FFE7BDF812100120029039B9FFE7BDF8B8
:104C00001000002818BF01200290FFE70298C0079B
:104C1000002870D0FFE70C980068406980070028E2
:104C200022D5FFE7BDF81200F0B1FFE7BDF8100094
:104C3000BDF81210059A1144884215D2FFE70C986E
:104C4000406E0088089908800C99486E02304866CA
:104C50000C99B1F86A000138A1F86A000C98B0F814
:104C60006A00ADF81200FFE70C9800684069C007C1
:104C7000C8B1FFE7BDF81000A8B1FFE707980088AA
:104C80000C99C96E08800C99C86E0230C8660C99E0
:104C9000B1F872000138A1F872000C98B0F87200F7
:104CA000ADF81000FFE7FCF7FFFE0699401A1099D7
:104CB000884204D3FFE71098013018B9FFE7109835
:104CC000C0B9FFE70C9802F0E9FC0C99D1F88C0010
:104CD00040F48070C1F88C000C99012081F88900A3
:104CE000FFE70C99002081F88800FFE703208DF88A
:104CF0003700B6E07DE786E0FFE7BDF8121001203F
:104D0000019039B9FFE7BDF81000002818BF012055
:104D10000190FFE70198C007002873D0FFE70C98C7
:104D2000006840698007002823D5FFE7BDF812001E
:104D3000F8B1FFE7BDF81000BDF81210059A114454
:104D4000884216D2FFE70C980168406E007881F81F
:104D500020000C99486E013048660C99B1F86A0041
:104D60000138A1F86A000C98B0F86A00ADF812009A
:104D7000FFE70C9800684069C007D8B1FFE7BDF8AD
:104D80001000B8B1FFE70C98006890F830000C995B
:104D9000C96E08700C99C86E0130C8660C99B1F8DC
:104DA00072000138A1F872000C98B0F87200ADF8EA
:104DB0001000FFE7FCF778FE0699401A1099884228
:104DC00004D3FFE71098013018B9FFE71098C0B975
:104DD000FFE70C9802F062FC0C99D1F88C0040F4CB
:104DE0008070C1F88C000C99012081F88900FFE7E0
:104DF0000C99002081F88800FFE703208DF8370028
:104E00002FE07AE7FFE7FFE70C98109B06996A46C8
:104E100011600821002202F0E3FC40B1FFE70C9989
:104E2000D1F88C0040F02000C1F88C00FFE70C980E
:104E300002F034FC0C99012081F88900FFE70C99FD
:104E4000002081F88800FFE70C98D0F88C0020B192
:104E5000FFE701208DF8370003E000208DF83700D0
:104E6000FFE79DF837000EB080BD000082B00190D2
:104E700001980090042843D80099DFE801F00C1D48
:104E80002F4103004EF21001CEF20001086840F0FD
:104E90000400086035E04EF21001CEF2000108680F
:104EA00020F00400086040F6E441C4F202410868C2
:104EB00020F00C00086024E04EF21001CEF2000158
:104EC000086820F00400086040F6E441C4F20241A2
:104ED0000868012262F38300086012E04EF21001BC
:104EE000CEF20001086820F00400086040F6E441BA
:104EF000C4F202410868022262F38300086000E005
:104F0000FFE702B07047000082B0009000980138BF
:104F1000B0F1807F03D3FFE70120019016E00098F5
:104F200001384EF21401CEF2000108604EF2180171
:104F3000CEF20001002008604EF21002CEF2000214
:104F4000116841F0030111600190FFE7019802B080
:104F50007047000083B04EF21000CEF200000068EF
:104F60004007002803D5FFE70420029020E040F628
:104F7000E440C4F20240006800F00C000190019887
:104F8000009040B1FFE70098042807D0FFE70098A1
:104F9000082806D008E00020029008E001200290D6
:104FA00005E00220029002E000200290FFE7FFE708
:104FB000029803B07047000081B0009001B07047C4
:104FC00081B0009001B0704781B0009001B070478F
:104FD00084B00290019100200090FFE7029890F8C1
:104FE0003C00012804D1FFE702208DF80F007AE091
:104FF0000299012081F83C00FFE7FFE7009820F0CC
:10500000FF000199C96808430090009820F440709F
:105010000199896808430090009820F48060019904
:10502000496808430090009820F4006001990968DD
:1050300008430090009820F48050019909690843C2
:105040000090009820F400500199496908430090AD
:10505000009820F480400199096B08430090009863
:1050600020F470200199896940EA0140009000987D
:1050700020F080500199C9690843009002980068A7
:1050800042F60041C4F2010188421ED1FFE70098B8
:1050900020F470000199896A40EA0150009000985C
:1050A00020F080700199096A08430090009820F070
:1050B00000700199496A08430090009820F0005060
:1050C0000199C96A08430090FFE7009802990968AE
:1050D0004864FFE70299002081F83C00FFE70020C8
:1050E0008DF80F00FFE79DF80F0004B07047000037
:1050F00081B0009001B0704781B0009001B070475E
:1051000081B0009001B0704785B003900291FFE735
:10511000039890F83C00012804D1FFE702208DF8A5
:10512000130068E00399012081F83C00FFE7FFE7E6
:105130000399022081F83D000398006840680190BF
:1051400003980068806800900398006842F6004168
:10515000C4F2010188420AD1FFE7019820F47000EF
:10516000019002984168019808430190FFE7019877
:105170004FF68F71CFF6FF510840019002980168F9
:1051800001980843019001980399096848600398C1
:10519000006842F60041C4F2010188420FD0FFE7E7
:1051A00003980068B0F1804F09D0FFE703980068CA
:1051B00040F20041C4F2000188420ED1FFE700989E
:1051C00020F08000009002988168009808430090C9
:1051D0000098039909688860FFE70399012081F826
:1051E0003D00FFE70399002081F83C00FFE7002025
:1051F0008DF81300FFE79DF8130005B0704700001D
:1052000081B0009001B0704780B582B000900098E6
:1052100020B9FFE701208DF8070045E0009890F8DD
:105220003D0040B9FFE70099002081F83C0000985C
:1052300000F03EF8FFE70099022081F83D00009958
:1052400051F8040B02F006FC0099012081F8480097
:10525000FFE70099012081F83E00009981F83F00A6
:10526000009981F84000009981F84100009981F887
:105270004200009981F84300FFE7FFE70099012011
:1052800081F84400009981F84500009981F84600B2
:10529000009981F84700FFE70099012081F83D005F
:1052A00000208DF80700FFE79DF8070002B080BDE1
:1052B00080B586B005900598006842F60041C4F2BA
:1052C0000101884210D1FFE7FFE740F6A440C4F295
:1052D0000240016841F400610160006800F4006070
:1052E00004900498FFE742E005980068B0F1804F11
:1052F00019D1FFE7FFE740F69C40C4F20240016885
:1053000041F001010160006800F001000390039882
:10531000FFE72D20019000221146FDF79DF901982D
:10532000FDF790F922E00598006840F20041C4F2D0
:105330000001884219D1FFE7FFE740F69C40C4F224
:105340000240016841F002010160006800F00200C3
:1053500002900298FFE72E20009000221146FDF7F0
:105360007BF90098FDF76EF9FFE7FFE7FFE706B06E
:1053700080BD000083B00190019890F83D000128A5
:1053800004D0FFE701208DF80B0045E001990220D1
:1053900081F83D0001980168C86840F00100C860CC
:1053A0000198006842F60041C4F2010188420FD022
:1053B000FFE701980068B0F1804F09D0FFE701983E
:1053C000006840F20041C4F20001884219D1FFE7B1
:1053D0000198006880680721C0F201010840009030
:1053E000009806280CD0FFE70098B0F5803F07D062
:1053F000FFE701980168086840F001000860FFE7D6
:1054000006E001980168086840F001000860FFE7C5
:1054100000208DF80B00FFE79DF80B0003B07047EC
:1054200080B586B00490039100208DF80B00FFE753
:10543000049890F83C00012804D1FFE702208DF881
:105440001700EDE00499012081F83C00FFE7FFE739
:105450000499022081F83D0004980068806801905A
:1054600001984FF68871CFF6CE71084001900198EF
:1054700020F47F400190019804990968886003989E
:1054800000680090002800F0B180FFE70098102825
:1054900000F0AC80FFE70098202800F0A780FFE72D
:1054A0000098302800F0A280FFE70098402800F024
:1054B0009080FFE70098502871D0FFE7009860289F
:1054C0007AD0FFE70098702845D0FFE70098B0F544
:1054D000805F3FD0FFE70098B0F5005F50D0FFE756
:1054E0000098B0F5801F00F08180FFE70098B0F1D0
:1054F000101F7BD0FFE700982021C0F210018842E6
:1055000074D0FFE700983021C0F2100188426DD0BE
:10551000FFE700984021C0F21001884266D0FFE703
:1055200000985021C0F2100188425FD0FFE7009838
:105530006021C0F21001884258D0FFE70098702126
:10554000C0F21001884251D0FFE70098B0F5001F6B
:105550004CD052E055E004980068039B5A68996863
:10556000DB6802F0EBFA049800688068019001980B
:1055700040F077000190019804990968886040E044
:1055800004980068039B5A689968DB6802F0D6FAB1
:1055900004980168886840F48040886031E004988D
:1055A0000068039A5168D26802F046FD04980068CA
:1055B000502102F0DDFA24E004980068039A516853
:1055C000D26802F061FD04980068602102F0D0FA10
:1055D00017E004980068039A5168D26802F02CFD25
:1055E00004980068402102F0C3FA0AE004980068B9
:1055F0000399096802F0BCFA03E001208DF80B0062
:10560000FFE70499012081F83D00FFE7049900209D
:1056100081F83C00FFE79DF80B008DF81700FFE7CD
:105620009DF8170006B080BD81B0009001B07047B2
:1056300080B584B0039003980068C0680290039816
:105640000068006901909DF804008007002824D5B7
:10565000FFE79DF80800800700281DD5FFE70398A5
:1056600001686FF002000861039901200877039830
:1056700000688069800720B1FFE70398FFF7D4FF37
:1056800006E0039800F088F9039800F0B9FAFFE704
:10569000039900200877FFE7FFE79DF80400400723
:1056A000002825D5FFE79DF80800400700281ED5F3
:1056B000FFE7039801686FF0040008610399022076
:1056C000087703980068806910F4407F04D0FFE7F2
:1056D0000398FFF7A9FF06E0039800F05DF903982F
:1056E00000F08EFAFFE7039900200877FFE7FFE755
:1056F0009DF804000007002824D5FFE79DF8080066
:10570000000700281DD5FFE7039801686FF0080027
:10571000086103990420087703980068C06980072E
:1057200020B1FFE70398FFF77FFF06E0039800F042
:1057300033F9039800F064FAFFE703990020087733
:10574000FFE7FFE79DF80400C006002825D5FFE726
:105750009DF80800C00600281ED5FFE703980168E1
:105760006FF010000861039908200877039800681B
:10577000C06910F4407F04D0FFE70398FFF754FF9F
:1057800006E0039800F008F9039800F039FAFFE703
:10579000039900200877FFE7FFE79DF80400C007A2
:1057A00078B1FFE79DF80800C00748B1FFE703980C
:1057B00001686FF001000861039800F025FAFFE727
:1057C000FFE7019800F08000802806D0FFE79DF8F1
:1057D00005008006002810D5FFE79DF808000006A8
:1057E000002809D5FFE7039801686FF402500861AB
:1057F0000398FFF7E5FBFFE7FFE79DF80500C0070B
:1058000080B1FFE79DF808000006002809D5FFE7F2
:10581000039801686FF4807008610398FFF7CCFB70
:10582000FFE7FFE79DF804004006002810D5FFE7DA
:105830009DF808004006002809D5FFE70398016895
:105840006FF040000861039800F034FAFFE7FFE7CB
:105850009DF804008006002810D5FFE79DF8080099
:105860008006002809D5FFE7039801686FF0200043
:1058700008610398FFF7A8FBFFE7FFE79DF8060024
:10588000C006002810D5FFE79DF80A00C0060028D2
:1058900009D5FFE7039801686FF480100861039849
:1058A000FFF72AFCFFE7FFE79DF8060080060028C7
:1058B00010D5FFE79DF80A008006002809D5FFE70C
:1058C000039801686FF4001008610398FFF710FC5B
:1058D000FFE7FFE79DF806004006002810D5FFE728
:1058E0009DF80A004006002809D5FFE703980168E3
:1058F0006FF4800008610398FFF702FCFFE7FFE701
:105900009DF806000006002810D5FFE79DF80A0064
:105910000006002809D5FFE7039801686FF400002E
:1059200008610398FFF76CFCFFE7FFE704B080BD58
:1059300080B588B0079000200690059004900390F1
:1059400002900798006842F60041C4F201018842C3
:1059500020D1FFE7FFE740F68C40C4F20240016827
:1059600041F001010160006800F001000190019820
:10597000FFE74FF400700290022003900020049093
:105980000590012006900020C4F2022002A9FBF736
:105990000DFFFFE708B080BD81B0009001B07047F7
:1059A00080B586B004900391029200208DF8070024
:1059B000FFE7049890F83C00012804D1FFE702209B
:1059C0008DF81700C0E00499012081F83C00FFE742
:1059D000FFE702980090142800F2A7800099DFE802
:1059E00001F00BA4A4A424A4A4A43EA4A4A457A49A
:1059F000A4A471A4A4A48A0004980068039902F0E6
:105A0000CFF804980168886940F00800886104981C
:105A10000168886920F0040088610398026904988D
:105A2000016888691043886183E0049800680399DD
:105A300002F020F904980168886940F400608861E8
:105A400004980168886920F480608861039802697D
:105A500004980168886940EA0220886169E0049836
:105A60000068039902F076F904980168C86940F06B
:105A70000800C86104980168C86920F00400C86182
:105A80000398026904980168C8691043C86150E02E
:105A900004980068039902F0CBF904980168C8697A
:105AA00040F40060C86104980168C86920F480600F
:105AB000C8610398026904980168C86940EA022035
:105AC000C86136E004980068039902F021FA04984E
:105AD0000168086D40F00800086504980168086DC9
